:100000000C944F010C9496010C9496010C9496015B
:100010000C9496010C9496010C9496010C94960104
:100020000C9496010C9496010C94251E0C94F71ECA
:100030000C9413150C9496010C9496010C94960153
:100040000C9496010C9496010C9496010C949601D4
:100050000C9496010C9460150C9496010C949601E6
:100060000C9496010C9496010C9496010C949601B4
:100070000C9496010C9496010C9496010C949601A4
:100080000C9496010C9496010C9496010C94960194
:100090000C9496010C9496010C9496010C94960184
:1000A0000C9496010C9496010C949601580A580AE7
:1000B0008A0A8A0AD70AF50A4D0C4D0C370BCC0B6D
:1000C000DD0BDD0B3D0C4D0C4D0C460CE20CE20C37
:1000D000F40CF40CEB0CF40CF40CF40CE20CE20C4D
:1000E000F00CF40CF40CF00C641F8B1F83208B1F9E
:1000F0008320D71FFA1F8320512060204200300048
:100100004F0035005200510031002F0050002900EF
:10011000E3002C000403300000000C0372006F00A9
:100120006D00610063000000260354006800650054
:1001300052006F00790061006C0053007700650089
:1001400061007400730068006900720074000000B0
:100150000403090409023B00020100A0FA0904009B
:1001600000010301010009211101000122400007E3
:1001700005810308000A09040100010300000009C9
:10018000211101000122BC000705820320000A1290
:10019000011001000000084B4B01000100010203A7
:1001A0000105010902A10185020901A10005091942
:1001B0000129051500250195057501810295017537
:1001C0000381010501093009311581257F950275EB
:1001D00008810609381581257F9501750881060576
:1001E0000C0A38021581257F950175088106C0C06B
:1001F00005010980A101850319012AB7001501260F
:10020000B700950175108100C0050C0901A1018599
:100210000419012AA002150126A00295017510817A
:1002200000C005010906A1018505050719E029E7B8
:10023000150025019508750181020507190029EFB0
:100240001500250195F075018102050819012905A0
:10025000950575019102950175039101C00501098C
:1002600006A101050719E029E71500250195087584
:100270000181029501750881010507190029FF1503
:100280000026FF009506750881000508190129055B
:10029000950575019102950175039101C000112426
:1002A0001FBECFEFDAE0DEBFCDBF04B603FE27C02E
:1002B0008091500290915102A0915202B09153024C
:1002C0008730904BA740B04BD1F41092500210925F
:1002D0005102109252021092530214BE84B7877FCB
:1002E00084BF0FB6F894A8958091600088618093D0
:1002F0006000109260000FBEE0E0F8E3099511E0A5
:10030000A0E0B1E0E2E5F2E402C005900D92AE3764
:10031000B107D9F722E0AEE7B1E001C01D92A035E8
:10032000B207E1F70E94541B0C9427210C940000A3
:1003300081E0089581E008950C949A0108950C9449
:100340009E011F93CF93DF9300D000D01F92CDB7B3
:10035000DEB749835A836B833091900189819A81FA
:10036000311114C0662359F0222349F00E941B1258
:10037000182F682F89819A810E94C41103C00E949E
:10038000EF11182F69817A81812F04C00E941B12FE
:1003900069817A810F900F900F900F900F90DF91ED
:1003A000CF911F910C945302FC01262F4081518163
:1003B0006281738184810C94A101CF93DF93EC015E
:1003C00060E00E94D401BE01DF91CF910C949F01A7
:1003D0000E944D13811102C00E94F7130C94720405
:1003E0000C946E0408950C94F20181E008950C942D
:1003F000F501CF93C82F0E94F3018C2F0E94F701C3
:10040000CF91089508950E94D00C0E9402022FEF10
:1004100084E39CE0215080409040E1F700C0000060
:100420000C9486150F931F93CF93DF93EC0161E03B
:100430000E94D4018C01BE010E949C01882349F1D5
:10044000BE01C8010E940506882319F1BE01C8013A
:100450000E9446068823E9F0BE01C8010E94710788
:100460008823B9F08A81882369F001158CE5180783
:1004700031F00E3D1C4531F40E94F7130AC00E9472
:10048000030207C0CE01DF91CF911F910F910C9411
:10049000980180E0DF91CF911F910F91089580E046
:1004A00090E008950895272F30E0F901EE0FFF1F27
:1004B0002E0F3F1FF9019CE0899FE00DF11D1124D3
:1004C000E60FF11DEE0FFF1FE450FF4F8591949151
:1004D0000895880F991FFC01EC5EFE4F8591949161
:1004E0000895CF93DF930E9453020E948903EC0189
:1004F0008115904508F041C0C11580E4D80708F087
:10050000D1C0C83ED10510F5C03ED10508F0FDC0F0
:10051000C83AD10578F4C53AD10508F0A2C0C13077
:10052000D10509F4F2C008F4EEC0C430D10508F0DA
:10053000ECC0E9C0CF3BD10508F49BC0C03CD1055D
:1005400008F4E1C0CE01805C91099EC0C11590E223
:10055000D90758F4C11521E0D20708F0D6C0C03F32
:10056000D10508F4D0C0D065D0C0C11580E3D8074C
:1005700008F08EC0CE019F7087C0C11595E5D907E0
:1005800008F043C0C11524E5D20708F0A2C0C11588
:1005900082E5D80708F5C11591E5D90708F085C0AF
:1005A000CE0174E0969587957A95E1F783709C2F3C
:1005B000937021E030E002C0220F331F9A95E2F7DA
:1005C0003C68382BCF70C695C69580E2C89FE00185
:1005D0001124C22BD32B99C09E01237033278C2F5B
:1005E00086958695C115D34508F064C0C1E0D0E07A
:1005F00002C0CC0FDD1F2A95E2F720E2829FC001E6
:100600001124C82BD92BDC6880C0C11529E5D2077D
:10061000A0F4C11588E5D80708F060C0C11596E5BB
:10062000D90708F070C08C2F0E941D048F71C82F4D
:10063000D0E0DC2FCC27D06268C0C1152AE5D207F4
:1006400008F451C0CE0190568115904208F05BC06D
:100650008D2F8F710E941D04DD27D0628F71D82BE2
:1006600054C0C55AD0E0CD5BDE4FC881D0E0D06425
:100670004CC0C85AD0E0CC0FDD1FCB5EDE4F0990D6
:10068000D881C02DD46441C00E946902EC013DC0F4
:10069000CE019927D3FF03C0EC01D86C36C0EC0122
:1006A000D06C33C0DF70D06A30C0DC2FCC27C16F74
:1006B000D06A2BC0C1E0D0E002C0CC0FDD1F2A956C
:1006C000E2F720E2829FC0011124C82BD92BDA68FF
:1006D0001CC0DC2FCC27C46FD06A17C0DC2FCC27FE
:1006E000C06FD06A12C08C2F8F700E941D0494E0DE
:1006F000D695C7959A95E1F7CF70D0E0DC2FCC273F
:10070000D069C82B02C0C0E0D0E0CE01DF91CF910C
:1007100008958238910569F1B0F48133910509F4A7
:100720006DC048F48932910509F463C08A3291059D
:1007300009F469C008958533910509F455C08933DA
:100740009105B9F00895833E910569F138F4803E32
:100750009105B1F0823E910509F10895863E91051B
:10076000A9F1873E9105B9F1843E910509F064C075
:1007700023C02091410220FD4FC021FD4DC00895AE
:100780008091410280FD44C08091420280FF44C0BC
:100790008091410284FD42C083EE4DC080914102B0
:1007A00082FF38C0F5CF8091410282FD33C0809135
:1007B000420280FD31C0ECCF8091420281FF32C005
:1007C0008091410284FD2AC087EE35C080914102AC
:1007D00083FF26C0F5CF8091410283FD21C0809127
:1007E000420281FD1FC0ECCF8091410285FD1CC0FB
:1007F0001DC08091410285FD19C016C08091410243
:1008000086FD16C017C08091410286FD13C010C03E
:1008100089E311C082EE0FC080EE0DC080E00BC0F6
:1008200086EE09C084EE07C089E205C085E303C0F7
:100830008AE201C081E390E008959091410292FF25
:100840000DC0282F2871283019F4877F846006C0D6
:10085000282F2471243011F48B7F886093FF0DC002
:10086000282F2871283119F4877E846106C0282F2B
:100870002471243111F48B7E88612091420220FF83
:100880000DC0382F3871383019F4877F816006C069
:10089000382F3171313011F48E7F886021FF0DC007
:1008A000282F2871283119F4877E816106C0282FEE
:1008B0002171213111F48E7E886194FD877E089527
:1008C000E82FF0E0E95CFD4F80810895089580EA0B
:1008D0008A95F1F7089508950C946B040C946C04B8
:1008E0000C946B040C947004CF93DF93A9E4B1E0F3
:1008F0004DE451E061E070E08D91E82FE295EF70FA
:10090000F0E021A18F70EB0102C0CC0FDD1F8A95B2
:10091000E2F7CE019C2F9095922391A392A1892B6F
:1009200082A34A175B0741F7A6E4B1E041E050E03B
:100930008D91E82FE295EF70F0E021A18F70BA0160
:1009400002C0660F771F8A95E2F7CB01962F90952C
:10095000922391A392A1892B82A371E0A934B707B6
:1009600039F710923302109237021092340210922B
:10097000380210923502109239021092360210920B
:100980003A0284E00E945A05DF91CF910C94E8016D
:100990003F924F925F926F927F928F929F92AF920F
:1009A000BF92CF92DF92EF92FF920F931F93CF935C
:1009B000DF9389E4882E81E0982E03E312E097E329
:1009C000692E92E0792E512CCC24C394D12C58015D
:1009D000D8013C901C92F40181914F01C82FC2951F
:1009E000CF70D0E099A18F70760101C0EE0C8A958E
:1009F000EAF7892F8E2989A38AA14E2C409484215D
:100A00008AA30E946704E6E4F1E020E030E09191DF
:100A1000A92FA295AF70B0E090964C91D8016C913F
:100A200050E09F7002C0559547959A95E2F740FDBA
:100A300008C09C2D022E01C0990F0A94EAF7892F55
:100A400001C080E0862BD8018C932F5F3F4F23306D
:100A50003105E9F689A1482249A28AA1E82AEAA239
:100A60000F5F1F4F81E0F5019081931101C080E07D
:100A7000582A6016710609F0AACF252D44E067E3D5
:100A800072E083E392E00E945B050E94F001852DF5
:100A9000DF91CF911F910F91FF90EF90DF90CF905A
:100AA000BF90AF909F908F907F906F905F904F908E
:100AB0003F9008950895FF920F931F93CF93DF9374
:100AC0008C01F62ED72FC42F222349F081E080938A
:100AD00080010E94451590937F0180937E01809153
:100AE00080018823C1F080917E0190917F010E9456
:100AF0005115069780F0EF2DFD2FD8014C2F50E0B7
:100B0000CD01801B910B841795071CF48D91819367
:100B1000F7CF10928001DF91CF911F910F91FF903D
:100B200008950F931F93CF93DF93C62FD42F122FC7
:100B3000FC0182818823C9F0609383010E944515DE
:100B4000909382018093810180E28C0F883008F0BD
:100B500057C0C77081E001C0880FCA95EAF7DF91DE
:100B6000CF911F910F910C94180A80918301681303
:100B700030C080918101909182010E945115883C82
:100B8000910538F500E20D0FCD17B9F080E28C0F1A
:100B9000883040F4C77081E001C0880FCA95EAF739
:100BA0000E941F0A083028F581E09D2F977001C030
:100BB000880F9A95EAF70E94180A812F0E94050A69
:100BC0000830F0F4D77081E001C0880FDA95EAF7B9
:100BD0000AC080E28C0F883098F4C77081E001C0B1
:100BE000880FCA95EAF7DF91CF911F910F910C946E
:100BF0001F0A812FDF91CF911F910F910C94050A4D
:100C0000DF91CF911F910F9108959C01CB01233F5C
:100C10004CE53407F9F078F4283DFCE53F07B9F0DE
:100C2000293D4CE5340711F1273D3C4531F526E2DD
:100C300041EE61EE1EC0253FFCE53F0799F070F0E4
:100C4000263F3C45D1F427E245EE66EE12C027E28E
:100C500045EE0EC026E241EE60EE0BC027E245EE07
:100C600064EE07C026E241EE62EE03C028E241E0F6
:100C700065EE0E94910580E00895FC018281882341
:100C800019F010928301089581E00895CF93DF93C6
:100C9000EC01FB018281882309F41FC1C230FCE50D
:100CA000DF0708F41BC1C6319CE5D90738F09E0167
:100CB0002A5F3C452930310508F010C10E946A13B3
:100CC0009093420280934102C031ECE5DE0709F4C3
:100CD000C3C008F041C0C8308CE5D80709F49AC0F9
:100CE000F0F4C430ECE5DE0709F487C068F4C230E4
:100CF0008CE5D80709F477C0C330DC4509F0E3C0C0
:100D000080914102826076C0C630ECE5DE0709F4CE
:100D10006EC008F07BC08091410288606BC0CC300F
:100D20008CE5D80709F485C068F4CA30ECE5DE0725
:100D300009F474C008F079C00E94D00C809141027F
:100D4000806858C0CE308CE5D80709F476C008F02A
:100D50007FC0809141028BC0CB3FECE5DE0709F4F8
:100D60004FC018F5C3318CE5D80709F47DC078F47D
:100D7000C131ECE5DE0709F473C0C231DC4509F08E
:100D8000A2C00E94D00C809141028F7733C0C53140
:100D90008CE5D80709F472C008F486C0CA3FDC4568
:100DA00009F091C0809142023EC0CF3FFCE5DF07D1
:100DB00009F45FC058F4CD3F9CE5D90709F444C05D
:100DC00008F43FC08091420282602DC0C130FDE531
:100DD000DF0709F475C008F45DC0C230DD4509F0D5
:100DE00072C080E06EC080914102816003C080913A
:100DF000410280618093410266C08091410211C02E
:100E0000809142028260809342025DC080914102E3
:100E10008062F0CF809141028064ECCF80914102EA
:100E200088608460E7CF8160EECF809141028E7F41
:100E3000E1CF809141028D7FDDCF80914102877F9C
:100E4000D9CF8091420218C0809142028D7FDBCFC2
:100E5000809141028F7ECECF809141028F7DCACF9B
:100E6000809141028F7BC6CF80914102877F8B7F2B
:100E7000C1CF809142028D7F8E7FC5CF809141028C
:100E800082FB222720F991E0922790FB82F990FBC8
:100E900083F9B0CF80914202982F909591708E7F08
:100EA000892B90FB81F9AFCF0E94D00C8091410239
:100EB00087FB222720F991E0922790FB87F99ACFB0
:100EC00081E00E94F91380914102909142020E94B8
:100ED0007B130E94D00C80E001C081E0DF91CF91B4
:100EE0000895CF93DF9386319C4541F5EB010E9435
:100EF0009C12982F8A812091000130910101882352
:100F000079F09A7A81E009F480E08093840191116C
:100F100002C069E201C065E3C9010E9494140AC0DD
:100F200080918401811102C069E201C065E3C901B9
:100F30000E949F140E94EA1280E001C081E0DF91CC
:100F4000CF91089590938A01809389010895E0914B
:100F50008901F0918A01309721F00190F081E02D14
:100F6000099480E00895E0918901F0918A01309719
:100F700099F020911401222359F02091410227FF7A
:100F800007C0DC012C9111962C93119725E02C932E
:100F90000280F381E02D09940895E0918901F09198
:100FA0008A01309739F022E0DC012C930480F5812E
:100FB000E02D099408952091870130918801281728
:100FC000390771F09093880180938701E09189013E
:100FD000F0918A01309721F00680F781E02D099485
:100FE000089520918501309186012817390771F005
:100FF0009093860180938501E0918901F0918A01A7
:10100000309721F00084F185E02D0994089585B78B
:10101000806885BF85B7806885BF089508950C9462
:101020000E080C940F080C940E080C940E080E94E5
:1010300007080E9413080C94110881E008950E948B
:101040003C150E9474040E94DB150C941508AF92A5
:10105000BF92CF92DF92EF92FF920F931F93CF93A5
:10106000DF93CDB7DEB72A970FB6F894DEBF0FBE79
:10107000CDBF0E94C8040E941D08811111C08FEFCE
:1010800089838A831B820E9445158160782F9D8306
:101090008C8349815A816B818D810E94BF0840C039
:1010A0008CE8A82E81E0B82E00E010E0C02E802F42
:1010B0000E946004E82EF501D1905F01D82631F43A
:1010C0000F5F1F4F0430110589F7D9CF80910002BF
:1010D00081FD0E94660480E0FF24F3949D2D9F21F2
:1010E000D1F08E83CF82EF2081E009F480E0888701
:1010F0000E9445158160782F9A8789874E815F818C
:1011000068858A850E94BF08F801E457FE4F8081F8
:10111000F826F08205C08F5FFF0C8330F9F6D0CF40
:101120000E948F180E94A70790918B018917B1F038
:101130000E94A70780938B012A960FB6F894DEBF12
:101140000FBECDBFDF91CF911F910F91FF90EF9018
:10115000DF90CF90BF90AF900C94F9012A960FB614
:10116000F894DEBF0FBECDBFDF91CF911F910F91DD
:10117000FF90EF90DF90CF90BF90AF900895CF9306
:10118000DF93CDB7DEB72B970FB6F894DEBF0FBE57
:10119000CDBF4F83588769877A878B87DE01119689
:1011A00086E0FD0111928A95E9F785E0FE01379608
:1011B00001900D928A95E1F749815A816B817C817A
:1011C0008D819E810E94890F2B960FB6F894DEBF09
:1011D0000FBECDBFDF91CF910895FC018081918139
:1011E0000E945D120895CF93882309F4A4C0C82FEC
:1011F0008238C1F40E94A70781FD9DC069E38091F8
:101200000001909101010E9494140E94EA122FEFB4
:1012100081EE94E0215080409040E1F700C0000052
:1012200069E319C0833801F50E94A70780FD83C0D8
:1012300063E580910001909101010E9494140E9445
:10124000EA122FEF81EE94E0215080409040E1F7C8
:1012500000C0000063E580910001909101010E94AF
:101260009F14CF910C94EA128438C1F40E94A7070E
:1012700082FD61C067E480910001909101010E94AC
:1012800094140E94EA122FEF81EE94E021508040E6
:101290009040E1F700C0000067E4DDCF8CEF8C0FD9
:1012A000813AD0F46C2F80910001909101010E944D
:1012B0001414882349F06C2F809100019091010152
:1012C0000E949F140E94EA126C2F8091000190915D
:1012D00001010E949414C5CF80E28C0F883048F43D
:1012E000C77081E001C0880FCA95EAF70E949F127B
:1012F000B8CFEBE5EC0FE33040F4F0E0E558FE4FFB
:10130000808190E0CF910C94DB07E8E5EC0FE731AA
:1013100050F4F0E0EE0FFF1FE35BFE4F8081918100
:10132000CF910C94F107C03F30F08C2F0E9497179B
:10133000CF910C948418CF910895882309F464C048
:10134000823879F40E94A70781FF5EC069E380912B
:101350000001909101010E9494140E94EA1269E335
:1013600010C08338B1F40E94A70780FF4DC063E529
:1013700080910001909101010E9494140E94EA1250
:1013800063E580910001909101010E949F140C94EB
:10139000EA12843879F40E94A70782FF35C067E417
:1013A00080910001909101010E9494140E94EA1220
:1013B00067E4E7CF9CEF980F913A10F4682FE1CFE4
:1013C00090E2980F983050F4877091E001C0990F27
:1013D0008A95EAF7892F0E94A512D9CF9BE5980F2D
:1013E000933020F480E090E00C94DB0798E5980FB0
:1013F000973120F480E090E00C94F107803F20F0DA
:101400000E94FF170C9484180895CF93C82F0E9450
:10141000F308C93349F42FEF87EE93E02150804061
:101420009040E1F700C000008C2FCF910C949D09F3
:10143000882321F00E949F120C94EA1208958823B9
:1014400021F00E94A5120C94EA120895CF92DF9227
:10145000EF92FF920F931F93CF93DF937C01062FA0
:10146000C72FFC01158112951F70D281D1110E94E6
:10147000BC120E949512882379F0DD2369F080E286
:10148000800F883048F082E00E9434130E94951249
:1014900091E0D82ED92601C0D12CCC2EC2948FE059
:1014A000C8228C2D90E0FC01EA5AFF4F0C94CB200F
:1014B0008C2F807FCF70882311F0C295C07FDD23F1
:1014C00099F0CC2309F4C4C180E2800F883010F079
:1014D000011104C08C2F0E949F1203C08C2F0E9408
:1014E000AF120E94EA12B4C1802F0E949D09CC2342
:1014F00009F4D3C180E2800F883010F0011104C0DC
:101500008C2F0E94A51203C08C2F0E94B5120E943E
:10151000EA12C3C18C2F807FCF70803211F0C29548
:10152000C07F002319F00130C9F022C0DD2371F023
:10153000112341F0113031F40E94CF128C2B0E9404
:10154000D712ABC10E94CF128C2B1DC0112319F0F2
:10155000113009F4A2C10E94E01225C0DD2321F060
:10156000163008F09AC10EC0153008F096C11BC0A5
:10157000DD2361F0112331F0F701858180FF68C11F
:101580008F7085838C2F0E94180A87C1112359F010
:10159000093309F06EC1FFEF27EE83E0F1502040E0
:1015A0008040E1F764C18C2F0E941F0A76C18C2F06
:1015B00086958695837019F0813061F06EC1DD23C8
:1015C00021F0802F9C2F937002C080E090E00E9459
:1015D000DB076BC1DD2321F0802F9C2F937002C0AD
:1015E00080E090E00E94F10760C1DD23F9F0053F43
:1015F00051F0063F71F0043FA9F480913B029091B5
:101600003C0281600BC080913B0290913C02826061
:1016100005C080913B0290913C02846090933C0213
:1016200080933B02802F0E9497171EC0053F51F008
:10163000063F71F0043FA9F480913B0290913C0277
:101640008E7F0BC080913B0290913C028D7F05C044
:1016500080913B0290913C028B7F90933C0280935F
:101660003B02802F0E94FF170E9484181EC18C2FFE
:10167000837009F045C0D11114C1402F42954695A1
:101680004770440F440F602F6F70862F90E0A0E0EA
:10169000B0E0042E04C0880F991FAA1FBB1F0A9434
:1016A000D2F704FF10C00FE010E020E030E004C0EB
:1016B000000F111F221F331F4A95D2F70095109576
:1016C0002095309503C000E010E09801C695C695BE
:1016D000C370BC01CD01602B712B822B932BC230C8
:1016E00049F058F4C13019F00E94DA10DAC00E94B3
:1016F000C810D7C00E94EC10D4C00E94C610D1C040
:10170000DD2319F08C2F817001C08695882309F4A0
:10171000C8C0402F429546954770440F440F602F34
:101720006F70862F90E0A0E0B0E0042E04C0880F18
:10173000991FAA1FBB1F0A94D2F704FF10C00FE025
:1017400010E020E030E004C0000F111F221F331F03
:101750004A95D2F7009510952095309503C000E08A
:1017600010E09801C695C695C370BC01CD01602BF1
:10177000712B822B932BC23049F058F4C13019F0F1
:101780000E949F118EC00E948D118BC00E94B111CA
:1017900088C00E94001185C0CF70DD2339F08C2FE6
:1017A0000E942611802F0E94180A7BC0802F0E9461
:1017B0001F0A8C2F0E94471174C0023F01F128F4C8
:1017C000003F41F0013FA1F03FC0033FF9F0043F6B
:1017D00039F13AC0DD2341F0153008F05EC08C2F9E
:1017E0008F710E946C1159C0163008F056C0F7CFA7
:1017F000DD2339F08C2F8F710E9426114EC0DD231E
:10180000C9F38C2F8F710E94471147C0DD2329F047
:101810008C2F8F710E94111140C00E940C113DC08D
:10182000DD2349F0CF718C2F0E94261163E08C2FAD
:101830000E941F1332C081E00E943413123068F1FD
:1018400082E00E94341329C0DD2331F0112391F28C
:10185000802F0E94F30821C0112399F2093349F423
:101860009FEFE7EEF3E09150E040F040E1F700C079
:101870000000802F0E949D0910C04C2F4F70602FD8
:10188000C7010E944F020E9437100FC04C2F4F70AB
:10189000602FC7010E94520208C088EF8C0D84306F
:1018A00020F40E94A7070E94F901DD20C9F00E94E0
:1018B000911280FD15C0F70112820E948B120E94C6
:1018C0002611C7010E94910C0E948B12DF91CF91CB
:1018D0001F910F91FF90EF90DF90CF900C944711E4
:1018E000DF91CF911F910F91FF90EF90DF90CF90FC
:1018F00008950F931F93CF93DF93EC016881798153
:101900008A810E9468128C010E94C3110E94B41047
:10191000B801CE010E94260ADF91CF911F910F914D
:101920000895CF93DF93FC019081818123813481DD
:10193000232B31F08F3F31F481E09F3F19F403C036
:1019400081E001C080E080FD0EC0EF01CF010E9468
:101950001202882341F0CE010E94790CCE01DF9162
:10196000CF910C94DD01DF91CF9108950E94BC12BC
:101970000E94CC120E94EA120E94AE190E948418A2
:1019800080E090E00E94DB0780E090E00C94F1079B
:1019900080910001909101010E94AA140C94B60C50
:1019A0000E94AC120C94C80CE92FE295EF704E2FF8
:1019B00050E0FA013297EE30F105B0F4EA59FF4FEA
:1019C0000C94CB20803F91F018F4883E68F40EC050
:1019D000843F51F40BC0883E48F0813F29F406C093
:1019E00093FB882780F9089580E0089581E00895A9
:1019F0000E945D120E94D40C0895CF93DF9300D013
:101A000000D01F92CDB7DEB70F900F900F900F90C0
:101A10000F90DF91CF910895CF93DF9300D000D046
:101A200000D0CDB7DEB726960FB6F894DEBF0FBE56
:101A3000CDBFDF91CF9108951F93CF93DF93C091D6
:101A4000910116E080919201C81799F0D0E01C9F97
:101A5000F0011D9FF00D1124ED56FE4F4081518184
:101A600062817381848195810E940C0D2196C770DB
:101A7000E9CFDF91CF911F9108954091C30150911B
:101A8000C4016091C5017091C6018091C701909118
:101A9000C8010C940C0D0F931F93CF93DF9380918B
:101AA000C80182958F7009F05DC08091C5018823BF
:101AB00009F458C080919101109192016091C30185
:101AC0007091C401C091C601D091C70191E06F3FF0
:101AD00009F090E0292F06E0811709F443C0209710
:101AE00021F07F3F21F030E003C031E001C0322F10
:101AF00090E030FD34C0089FF001099FF00D1124E3
:101B0000DF01AD56BE4F11963C911197371327C098
:101B10003C91361324C012963C91129731111FC08C
:101B200013964D915C9114974C1B5D0B483C5105ED
:101B3000B0F48091C8018F7080618093C801E8562D
:101B4000FE4F80818F708061808383EC91E00E94E2
:101B5000910CDF91CF911F910F910C941C0D019668
:101B60008770BACFDF91CF911F910F9108959F9207
:101B7000AF92BF92CF92DF92EF92FF920F931F939B
:101B8000CF93DF93CDB7DEB761970FB6F894DEBF82
:101B90000FBECDBF8C0185E0F801DE011D960190DE
:101BA0000D928A95E1F7F80140815181E280909190
:101BB000C3016091C4012091C6013091C701211574
:101BC000310531F06F3F31F481E09F3F19F403C0DC
:101BD00081E001C080E0F82FF1709F2E80FD46C1AA
:101BE000F801A380B48083ECC82E81E0D82EF09059
:101BF000C501F501E21BF30BFF2009F4DFC0809162
:101C0000C801E83CF10508F09BC0282F207F09F0AF
:101C100052C0561313C0491311C0FE2CE1100EC060
:101C20008F7080618093C8010E943D0DC6010E94A3
:101C3000910C8091C801F801858358C1AB2831F01F
:101C40005F3F31F481E04F3F19F403C081E001C0F0
:101C500080E080FD03C081E08E2502C080E090E03E
:101C6000F82FF170FF2E80FF1CC080919101209110
:101C7000920136E0821709F417C190E0389FF00115
:101C8000399FF00D1124ED56FE4F6181561306C0A9
:101C90006081461303C06281E61203C0019687701B
:101CA000E9CFFE2CEE2009F421C18091C8018160AA
:101CB0008093C8015AC0561306C0491304C0E110EE
:101CC00002C0F8019FC04D875E878D859E850E946A
:101CD000F80C882379F1EE2069F12091C801822F58
:101CE00082958F7090E0029774F08091C30190917B
:101CF000C40198878F831986BB86AA862C87CE015C
:101D000007960E94910C86E0F801A3ECB1E00190E7
:101D10000D928A95E1F70E944B0D0E943D0D0DC07A
:101D2000561729F14D875E878D859E850E94F80C98
:101D300081112CC0C8010E94910CFF24F394D6C0DD
:101D4000282F207F69F77A2DB98AA88A6E2D898974
:101D50000E94FD0C83EC91E00E94910C86E0F6015C
:101D600011928A95E9F70E943D0DF12CBFC04913ED
:101D7000D9CFE110D7CFF8018583C8010E94910C1B
:101D800086E0F60111928A95E9F7B0C0EE2091F253
:101D90002091C801822F82958F7090E002970CF4F9
:101DA000B2CF8091C3019091C4019A8389831B8231
:101DB000BD82AC822E83CE010196A3CFE83CF10513
:101DC00008F047C0FE2CEE2009F4B4CF561330C003
:101DD00049132EC02091C80120FD21C0822F829579
:101DE0008F70482F50E041155105C9F0F801258347
:101DF0004F30510541F08F5F982F9295907F822F41
:101E00008F70892B8583C8010E94910C86E0F801B0
:101E1000A3ECB1E001900D928A95E1F742C086E013
:101E2000F801A3ECB1E001900D928A95E1F75EC054
:101E30004D875E878D859E850E94F80C811163CF4A
:101E40008091C80181608093C801C8010E94910CF3
:101E50004DC07A2DB98AA88A6E2D89890E94FD0C01
:101E600086E0F60111928A95E9F71BC0EE2009F48D
:101E700061CF4D875E878D859E850E94F80CF82E78
:101E8000882309F457CF86E0F801A3ECB1E0019074
:101E90000D928A95E1F783EC91E00E94ED080E9493
:101EA0004B0D0E943D0D22C04D875E878D859E851E
:101EB0000E945D12292F22952F70223028F49F70E6
:101EC00039F0811105C00BC0243028F49F7049F40B
:101ED000805E883020F0C8010E94910C9F2CF92C64
:101EE00005C0F8019581907F99F7F9CF8F2D619604
:101EF0000FB6F894DEBF0FBECDBFDF91CF911F911B
:101F00000F91FF90EF90DF90CF90BF90AF909F9098
:101F100008951F93CF93DF93CDB7DEB72C970FB6FD
:101F2000F894DEBF0FBECDBF4F83588769877A878D
:101F30008B879C87CE0107960E94B70D8823D1F02E
:101F40009F8188852A853B85232B31F08F3F31F493
:101F500081E09F3F19F403C081E001C080E080FD73
:101F600047C04F81588569857A858B859C850E94FD
:101F70000C0D3EC086E0FE013796DE011196019001
:101F80000D928A95E1F7FF81E8856A857B85611569
:101F9000710531F0EF3F31F481E0FF3F19F403C0E8
:101FA00081E001C080E080FD23C02091920130E0FB
:101FB000C9010196877099274091910150E08417DB
:101FC0009507F1F1F983EA837D836C8396E0929F14
:101FD000D001939FB00D1124AD56BE4FFE01319636
:101FE00001900D929A95E1F7809392010E941C0D49
:101FF00016E08091910190919201891771F1189FDB
:10200000C00111248D569E4F0E94B70D882329F1DF
:10201000E09191011E9FF0011124ED56FE4F408189
:10202000518162817381848195810E940C0D809120
:10203000910190E001968770992780939101D9CF03
:102040000E94D00C1092920110929101E3ECF1E009
:1020500086E0DF011D928A95E9F72C960FB6F89479
:10206000DEBF0FBECDBFDF91CF911F910895EF92DC
:10207000FF920F931F93CF93DF938C01892B09F469
:102080006CC0F12CEE24E394E8012196F8018491D0
:10209000843740F4843008F051C0813081F08230C0
:1020A00019F15BC0853709F444C0A8F19CE7980F8B
:1020B000903708F052C08F770E949D0941C00E5F93
:1020C0001F4FFE01849190E2980F983050F4877072
:1020D000FE2D01C0FF0F8A95EAF78F2F0E94BF12D5
:1020E00014C00E94F3082DC00E5F1F4FFE018491A3
:1020F00090E2980F983060F48770FE2D01C0FF0FBA
:102100008A95EAF78F2F0E94C5120E94EA1219C021
:102110000E949D0916C00E5F1F4FFE01C491CC2383
:1021200081F08FE99FE00197F1F700C00000C150F6
:10213000F6CF0E5F1F4FFE01F49003C00E94F3081C
:102140008E018F2D882309F49FCFEFE9FFE03197AF
:10215000F1F700C000008150F5CFDF91CF911F91C2
:102160000F91FF90EF900895089508950C94B51085
:102170000C94B6100E94B8106093D7017093D801E8
:102180008093D9019093DA010C94B60C0C94BA1098
:102190000F931F930091D7011091D8012091D9017D
:1021A0003091DA01602B712B822B932B1F910F91B1
:1021B0000C94BA100F931F930091D7011091D8017E
:1021C0002091D9013091DA01602371238223932376
:1021D0001F910F910C94BA100F931F930091D70188
:1021E0001091D8012091D9013091DA01602771272F
:1021F000822793271F910F910C94BA100C94B5105D
:102200000E94FE106093D3017093D4018093D50196
:102210009093D6010C94B60C60E070E0CB010C9466
:1022200000110F931F9341E050E060E070E08A01DD
:102230009B0104C0000F111F221F331F8A95D2F784
:10224000C901B8011F910F910C9400110F931F93B6
:1022500041E050E060E070E004C0440F551F661F8D
:10226000771F8A95D2F78091D3019091D401A091E4
:10227000D501B091D6018A019B01082B192B2A2B7D
:102280003B2BC901B8011F910F910C9400110F93C2
:102290001F9341E050E060E070E004C0440F551F20
:1022A000661F771F8A95D2F7409550956095709577
:1022B0008091D3019091D401A091D501B091D60124
:1022C0008A019B01082319232A233B23C901B80152
:1022D0001F910F910C9400110F931F9341E050E058
:1022E00060E070E004C0440F551F661F771F8A9599
:1022F000D2F78091D3019091D401A091D501B091F2
:10230000D6018A019B01082719272A273B27C901E3
:10231000B8011F910F910C9400110F931F9300911E
:10232000D3011091D4012091D5013091D601602BB9
:10233000712B822B932B1F910F910C9400110F93F3
:102340001F930091D3011091D4012091D5013091B8
:10235000D60160237123822393231F910F910C9444
:1023600000110F931F930091D3011091D40120917C
:10237000D5013091D60160277127822793271F91BD
:102380000F910C9400110895292F220F920F890F9D
:10239000E82FE695E695E695877051E001C0550F68
:1023A0008A95EAF785E0E89FF0011124E753FE4F94
:1023B00020E030E070E04081CB01022E02C0969513
:1023C00087950A94E2F78170819584278523842775
:1023D00081932F5F3F4F2530310569F70895292FED
:1023E000220F920F890F682F669566956695982F34
:1023F000977085E0689FB001112440E050E080E0D4
:10240000FB01E40FF51FE753FE4F208130E0092E5A
:1024100002C0369527950A94E2F721703327042EDF
:1024200001C0220F0A94EAF7822B4F5F5F4F4530BD
:10243000510531F70895BF92CF92DF92EF92FF924C
:102440000F931F93CF93DF938C01C090D301D09053
:10245000D401E090D501F090D6018091D701909100
:10246000D801A091D901B091DA01C82AD92AEA2A63
:10247000FB2ACFE1D0E0D701C6010C2E04C0B695EF
:10248000A795979587950A94D2F780FD04C0219768
:1024900090F7B12C07C0BC2EB8018C2F0E9471029E
:1024A0000197A9F38B2DDF91CF911F910F91FF9091
:1024B000EF90DF90CF90BF900895CF93DF93EC0122
:1024C0000E941B12BE010E947102DF91CF910895FC
:1024D0001F93CF93DF93EB0190919001992321F00B
:1024E000CB010E945D1213C0882349F0CB010E94EA
:1024F0001B12182F682FCE010E94C41104C0CB01FB
:102500000E94EF11182FBE01812F0E947102DF91EE
:10251000CF911F9108958091DB01859585958595D3
:1025200008958091DB01877008959091DB01977089
:1025300081E009F480E008958091FF010895909171
:10254000FF01892B8093FF01089580959091FF01F1
:1025500089238093FF0108951092FF0108959091BF
:10256000FE01892B8093FE01089580959091FE01D4
:1025700089238093FE0108951092FE0108959091A1
:10258000FD01892B8093FD01089580959091FD01B7
:1025900089238093FD0108951092FD010895809193
:1025A000DC01089508950C94D2120C94D3129091EA
:1025B000DC01981721F08093DC010C94D51208956A
:1025C0008091DC01882329F01092DC0180E00C94DA
:1025D000D5120895E0910001F09101018091FF0171
:1025E0008083E0910001F091010190818091FE01D2
:1025F000892B8083E0910001F0910101908180910D
:10260000FD01892B80838091DC01882381F0E0919A
:102610000001F09101019081892B8083809100015C
:10262000909101010E94FE1381110E94E01280919D
:102630000001909101010C94B3070C94D21298E020
:10264000899F90011124262B2093DB010E942611E3
:102650008091DB018595859585950C941D131092CD
:10266000DB0180E00C941D132091DB018095822317
:102670008093DB01982F977079F430E0482F082E73
:10268000000C550B2417350739F0859585958595F0
:102690000E9447110C942F13089580E090E00E944F
:1026A000ED2021E08C3E9E4F09F020E0822F08951E
:1026B00082E090E00C94E520682F82E090E00C949A
:1026C000F32083E090E00C94E520682F83E090E015
:1026D0000C94F320CF9384E090E00E94E520C82F73
:1026E00081E290E00E94E5202C2F30E0A901582BD8
:1026F000CA01CF910895CF93C92F682F84E090E04D
:102700000E94F3206C2F81E290E0CF910C94F32093
:10271000AB01BC018FE090E00C940521AB01BC0142
:1027200083E190E00C94052160E070E0CB010C9413
:102730008E1360E070E0CB010E9488130C94941318
:102740006CEE7EEF80E090E00E94112160E082E07C
:1027500090E00E94F32060E083E090E00E94F3208C
:102760001092D7011092D8011092D9011092DA017B
:1027700060E084E090E00E94F32060E081E290E07D
:102780000E94F32060E085E090E00E94F32060E08A
:1027900086E090E00E94F3206FEF87E090E00E94D7
:1027A000F32040E050E0BA0188E090E00E9405216B
:1027B00060E08DE090E00E94F32040E050E0BA013C
:1027C00088E190E00E94052160E087E190E00E94AE
:1027D000F32040E050E0BA018CE190E00E94052136
:1027E00060E080E290E00E94F3200C9499130C9436
:1027F000A013682F8EE090E00C94F320FC01329639
:1028000080911401882331F08091410287FF02C03A
:102810009EE101C096E080E0915028F021912223B2
:10282000D9F38F5FF9CF0895662351F120911401F8
:102830002223E9F02091410227FF19C0462F469537
:10284000469546954E31E0F4677021E030E002C0D5
:10285000220F331F6A95E2F7FC01E40FF11D82811C
:1028600090E02823392381E0232B69F409C0FC017F
:10287000329608962191621729F0E817F907D1F7E7
:1028800080E0089581E008959C01FC0132969FEF5D
:1028900080E04191461789F09F3F19F4411101C032
:1028A000982F8F5F8630A9F79F3F39F0F901E90F24
:1028B000F11D97FDFA956283089508959C012A5FA2
:1028C0003F4FFC014281461301C0128201968217DC
:1028D0009307B9F70895262F2695269526952E312C
:1028E00068F4FC01E20FF11D677021E030E001C0E7
:1028F000220F6A95EAF78281282B22830895262FDA
:102900002695269526952E3170F4FC01E20FF11DD7
:10291000677021E030E001C0220F6A95EAF7209548
:10292000828128232283089520911401222329F0F3
:102930002091410227FD0C946B140C9444142091B7
:102940001401222329F02091410227FD0C947F14C9
:102950000C945E1420911401FC013296222331F074
:102960008091410287FF02C08EE101C086E0DF0155
:102970001D928A95E9F7089508950C94BC140C945F
:10298000BC14CF930E94BF140E94C8040E94BD14BF
:10299000C0E08C2F0E946004811104C0CF5FC4305E
:1029A000C1F701C081E0CF9108950C94BC140C9440
:1029B000D5140E94D71480914702843049F11092B7
:1029C000010220E488E190E00FB6F894A895809386
:1029D00060000FBE2093600080E00E94F9010E9419
:1029E000D71483B7817F846083BF83B7816083BF3F
:1029F0007894889583B78E7F83BF0FB6F894A89597
:102A000080916000886180936000109260000FBE2A
:102A100008950C94BC140E94D00C0E94A7070E9439
:102A2000F9010C9409151F920F920FB60F92112401
:102A30008F939F93AF93BF9380910102811113C035
:102A400080913D0290913E02A0913F02B0914002E0
:102A50004196A11DB11D80933D0290933E02A0932B
:102A60003F02B0934002BF91AF919F918F910F9021
:102A70000FBE0F901F90189582E084BD93E095BD26
:102A80009AEF97BD80936E0008952FB7F8948091C8
:102A90003D0290913E02A0913F02B09140022FBFB3
:102AA00008959C014FB7F89480913D0290913E02A9
:102AB000A0913F02B09140024FBF821B930B08953B
:102AC00078941F920F920FB60F9211248F939F93B9
:102AD000AF93BF9380913D0290913E02A0913F023F
:102AE000B09140020196A11DB11D80933D029093CB
:102AF0003E02A0933F02B0934002BF91AF919F91DD
:102B00008F910F900FBE0F901F90189587E797E752
:102B100090930108809300089AE088E10FB6F8943A
:102B2000A895809360000FBE90936000FFCFCF9276
:102B3000DF92EF92FF920F931F93CF93C0E0E82EA6
:102B4000F12C8C2F0E94600400E010E0C82ED12CE4
:102B5000C601002E02C0959587950A94E2F780FD84
:102B600006C00F5F1F4F0330110591F70AC0602F99
:102B70007C2F80E00E945302E816F90691F781E06D
:102B800004C0CF5FC430E9F680E0CF911F910F9170
:102B9000FF90EF90DF90CF900895CF93C82F8CE2F5
:102BA0000E949715882321F08C2FCF910C949715B4
:102BB00080E0CF910895CF930E944D13811102C000
:102BC0000E94F713C5E6C15049F00E94C8048FE384
:102BD0009CE90197F1F700C00000F5CF89E20E945F
:102BE000CD15811120C18AE20E94CD1581110E946C
:102BF000F71385E00E94CD1581110E9486150E9471
:102C000058138093000287E00E94CD158823A9F114
:102C10008BE10E94CD15882351F08091000281FB49
:102C2000222720F991E0922790FB81F90EC08EE0D7
:102C30000E94CD15882361F08091000282FB22273B
:102C400020F991E0922790FB82F98093000215C051
:102C500080E10E94CD1590910002882341F093FB02
:102C6000222720F981E0822780FB93F904C0892F75
:102C7000809580FB90F990930002809100020E9461
:102C80005C130E946A13909342028093410280EE8B
:102C90000E94CD15882341F080914102982F909594
:102CA00090FB80F98093410289E30E94CD1588232F
:102CB00059F08091410281FB222720F991E092276F
:102CC00090FB81F98093410282EE0E94CD1588230A
:102CD00059F08091410282FB222720F991E092274E
:102CE00090FB82F98093410286EE0E94CD158823E5
:102CF00059F08091410283FB222720F991E092272D
:102D000090FB83F98093410283EE0E94CD158823C6
:102D100059F08091410284FB222720F991E092270B
:102D200090FB84F98093410285E30E94CD158823AE
:102D300059F08091410285FB222720F991E09227EA
:102D400090FB85F98093410281E30E94CD15882391
:102D500059F08091410286FB222720F991E09227C9
:102D600090FB86F98093410281E10E94CD15882372
:102D700059F08091410287FB222720F991E09227A8
:102D800090FB87F980934102809141029091420229
:102D90000E947B1387E20E94CD15C82F8EE10E940E
:102DA000CD158111C2608FE10E94CD158111C460E3
:102DB00080E20E94CD158111C86081E20E94CD158C
:102DC0008111C06182E20E94CD158111C06283E24F
:102DD0000E94CD158111C06484E20E94CD15882324
:102DE00011F0C06802C0CC2329F08C2F0E9465131B
:102DF0006C2F03C00E946113682F70E080E090E0A8
:102E00000E94C6108FE00E94CD15882319F081E042
:102E10000E94F91385E10E94CD15882321F080E0FE
:102E2000CF910C94F913CF9108958091090280FFFE
:102E30000BC06091070185E0689FB0011124759572
:102E40006795759567952BC081FF09C06091070153
:102E500085E0689FB00111247595679520C082FFB9
:102E600007C06091070185E0689FB001112417C079
:102E7000909108029923D1F060910601961788F786
:102E80002091070185E0289F90011124929FA001C5
:102E9000939F500D112470E0CA010E94B720603842
:102EA000710540F46115710519F406C065E070E024
:102EB000862F08958FE7089581E008958091090293
:102EC00080FF08C06091030170E075956795759566
:102ED000679521C081FF06C06091030170E0759580
:102EE000679519C082FF04C06091030170E010C0B3
:102EF00090910802992399F0609102019617A0F72A
:102F000080910301899FC001112470E00E94B720C5
:102F10006038710540F46115710519F406C061E06F
:102F200070E0862F08958FE7089581E00895803F2F
:102F300021F40E941517819504C0813F29F40E9455
:102F4000151780930D020895823F21F40E941517F2
:102F5000819504C0833F29F40E94151780930C02C9
:102F60000895893F19F40E945E1705C08A3F31F425
:102F70000E945E17819580930E0208958B3F21F485
:102F80000E945E17819504C08C3F29F40E945E1751
:102F900080930F020895843F21F480910B02816099
:102FA00017C0853F21F480910B02826011C0863FDB
:102FB00021F480910B0284600BC0873F21F4809143
:102FC0000B02886005C0883F31F480910B0280615C
:102FD00080930B0208958D3F21F480910902816056
:102FE0000BC08E3F21F480910902826005C08F3FA3
:102FF00029F4809109028460809309020895803F3A
:1030000039F480910D0287FF6CC010920D0269C0E7
:10301000813F29F480910D021816BCF362C0909193
:103020000C02823F29F497FF5CC010920C0259C039
:10303000833F19F41916CCF354C0893F41F48091B1
:103040000E0218160CF04DC010920E024AC08A3FB4
:1030500029F480910E0287FF44C0F6CF8B3F39F4EC
:1030600080910F0287FF3DC010920F023AC08C3F43
:1030700029F480910F021816BCF333C0843F21F469
:1030800080910B028E7F17C0853F21F480910B0247
:103090008D7F11C0863F21F480910B028B7F0BC086
:1030A000873F21F480910B02877F05C0883F31F470
:1030B00080910B028F7E80930B0213C08D3F21F411
:1030C000809109028E7F0BC08E3F21F4809109020E
:1030D0008D7F05C08F3F29F4809109028B7F8093FB
:1030E000090280910C0281110EC080910D028111A4
:1030F0000AC080910E02811106C080910F028111D9
:1031000002C01092080208958AE092E00E94CD0762
:103110000E94451590930702809306020895CF936D
:10312000DF9300D000D000D0CDB7DEB786E0EAE074
:10313000F2E0DE01119601900D928A95E1F78091FF
:103140000C02811105C080910D02882309F47AC018
:1031500080910402909105020E945115AC0190915A
:103160000802992339F02091080130E0241735072F
:1031700058F068C0209109018AE0289F900111242D
:103180002417350718F05EC09F3F19F09F5F90939A
:10319000080210920E0210920F0280910C02181673
:1031A00024F40E94151780930C0280910C0287FF73
:1031B00005C00E941517819580930C0280910D0225
:1031C000181624F40E94151780930D0280910D02A9
:1031D00087FF05C00E941517819580930D023091DD
:1031E0000C023323E1F020910D022223C1F045EBC4
:1031F0003403C0011124992319F090930C0203C0E9
:1032000081E080930C0235EB2303C0011124992344
:1032100019F090930D0203C081E080930D020E948B
:103220008418809106029091070290930502809382
:10323000040286E0FE013196AAE0B2E001900D9210
:103240008A95E1F780910E02811105C080910F02ED
:10325000882309F47AC080910202909103020E94AF
:103260005115AC0190910802992339F02091040185
:1032700030E02417350758F068C0209105018AE036
:10328000289F900111242417350718F05EC09F3F36
:1032900019F09F5F9093080210920C0210920D0299
:1032A00080910E02181624F40E945E1780930E027D
:1032B00080910E0287FF05C00E945E178195809362
:1032C0000E0280910F02181624F40E945E1780935C
:1032D0000F0280910F0287FF05C00E945E17819543
:1032E00080930F0230910E023323E1F020910F0200
:1032F0002223C1F045EB3403C0011124992319F0B6
:1033000090930E0203C081E080930E0235EB2303FD
:10331000C0011124992319F090930F0203C081E09A
:1033200080930F020E9484188091060290910702F8
:10333000909303028093020286E0FE013196AAE098
:10334000B2E001900D928A95E1F726960FB6F894B7
:10335000DEBF0FBECDBFDF91CF910895EAE0F2E06E
:1033600086E0DF011D928A95E9F71092080210921B
:1033700009020895809130020895CF93DF9300D021
:103380001F92CDB7DEB790914702943019F589832B
:103390007B836A8382E08093E9008FEF9091E8005D
:1033A000815095FD06C095ED9A95F1F700008111C9
:1033B000F5CF8091E80085FF0DC040E050E063E06C
:1033C00070E0CE0101960E94191C8091E8008E7772
:1033D0008093E8000F900F900F90DF91CF910895A8
:1033E000CF93DF93EC010E94FC1B823011F08430FC
:1033F00031F4BE0184E0DF91CF910C94BD19DF91CF
:10340000CF910895BC0183E00C94BD19CF93DF9355
:10341000EC010E94FC1B823011F08430F9F482E050
:103420008093E9008FEF9091E800815095FD06C0F0
:1034300095ED9A95F1F700008111F5CF8091E800A4
:1034400085FF0CC040E050E066E070E0CE010E94D5
:10345000191C8091E8008E778093E800DF91CF916E
:103460000895CF93DF93EC010E94FC1B823011F092
:103470008430D9F580911401882339F0809141027C
:1034800087FF03C060E282E002C068E081E08093D1
:10349000E9008FEF9091E800815095FD06C095ED11
:1034A0009A95F1F700008111F5CF8091E80085FF32
:1034B0001CC080911401811105C040E050E068E01B
:1034C00070E003C070E040E050E0CE010E94191CA3
:1034D0008091E8008E778093E80080E2FE01A0E111
:1034E000B2E001900D928A95E1F7DF91CF910895B6
:1034F00080914602811109C00E94AA1D0E94071EE8
:103500008091E20084608093E20008951092460268
:103510000895089508950C940B1542E061EC81E044
:103520000E94231D42E261EC82E00C94231D8091F5
:103530004902833009F460C030F4813071F0823088
:1035400009F499C008958A3009F485C08B3009F4D4
:103550006BC0893009F0A7C020C080914802813A31
:1035600009F0A1C08091E800877F8093E8008091F6
:103570004C0290914D02892B21F460E280E192E0AF
:1035800003C060E080E090E070E00E94641C8091E5
:10359000E8008B778093E80008958091480281329B
:1035A00009F081C080914C0290914D02029708F081
:1035B0007AC08091E800877F8093E8008091E800DE
:1035C00082FD05C0809147028111F8CF6CC0209127
:1035D000F3008091F20090E0922B029729F4809101
:1035E000F1008B7F813021F48091F10080933002D3
:1035F0008091E8008B7753C080914802813A09F0AE
:1036000052C080914C0290914D02892B09F04BC021
:103610008091E800877F8093E8008091E80080FF38
:10362000FCCF8091140136C0809148028132D9F5D7
:1036300080914C0290914D02892BA9F58091E80070
:10364000877F8093E8000E94581D80914A028093F2
:1036500014010C94D00C80914802813221F58091A4
:10366000E800877F8093E8000E94581D80914B02FC
:1036700080933102089580914802813AA1F48091AB
:10368000E800877F8093E8008091E80080FFFCCF0E
:10369000809131028093F1008091E8008E778093D1
:1036A000E8000C94581D089584B7877F84BF0FB637
:1036B000F894A895809160008861809360001092D2
:1036C00060000FBE90E080E80FB6F8948093610030
:1036D000909361000FBE0E9417080E94AA1D0E94CD
:1036E000071E8091E20084608093E20078940E943B
:1036F0009C200E941F088AE091E00E94A20780910E
:103700004702853069F40E94D914809145028823CC
:10371000B1F30E94C114882391F30E94031CEFCFE0
:103720000E942708ECCF0C94951B292F33272330B8
:103730003105C9F060F42130310581F022303105C6
:1037400009F04AC08BE390E024E531E049C0213222
:10375000310511F12232310579F13EC082E190E06C
:103760002FE831E03DC099278130910561F040F0AC
:103770008230910559F0039779F5E4E1F1E008C052
:10378000E0E5F1E005C0E8E2F1E002C0EAE1F1E0E5
:10379000849190E09F0124C06115710541F0613072
:1037A0007105D1F489E090E02FE731E019C089E09C
:1037B00090E026E631E014C06115710541F06130FA
:1037C000710551F48CEB90E021EA31E009C080E40E
:1037D00090E02DE532E004C080E090E020E030E0B1
:1037E000FA0131832083089580914702843011F0DB
:1037F00081E0089582E0089580913202811102C033
:103800000C94F41B089580E189BD82E189BD09B45F
:1038100000FEFDCF8091D8008F7D8093D8008091ED
:10382000E00082608093E0008091E00081FDFCCFA9
:103830000895CF92DF92EF92FF920F931F93CF9351
:10384000DF93EC018B017A010E94771D811133C057
:10385000E114F10439F0F70180819181081B190B03
:10386000C80FD91FC12CD12C0115110519F1809158
:10387000E80085FD16C08091E8008E778093E8000F
:10388000E114F10449F0F70180819181C80ED91E3D
:10389000D182C08285E00FC00E94771D882321F36A
:1038A0000AC089918093F10001501109FFEFCF1AEE
:1038B000DF0ADACF80E0DF91CF911F910F91FF9067
:1038C000EF90DF90CF90089520914E0230914F02FB
:1038D0002617370748F06115710539F42091E80083
:1038E0002E772093E80001C0B901FC0120E06115AA
:1038F000710579F1809147028823F1F18530F1F16A
:103900008091E80083FD3CC08091E80082FD2EC0DC
:103910008091E80080FFEBCF2091F3008091F200CE
:1039200090E0922B6115710551F08830910538F4C3
:1039300021912093F100615071090196F3CF21E0AC
:10394000089709F020E08091E8008E778093E800E6
:10395000CECF2111CFCF0AC080914702882361F0DA
:10396000853061F08091E80083FD0AC08091E80015
:1039700082FFF2CF80E0089582E0089583E0089509
:1039800081E0089520914E0230914F0226173707AB
:1039900048F06115710539F42091E8002E772093E5
:1039A000E80001C0B901FC0120E06115710591F149
:1039B00080914702882309F440C0853009F43FC054
:1039C0008091E80083FD3DC08091E80082FD2FC01A
:1039D0008091E80080FFE9CF2091F3008091F20010
:1039E00090E0922B6115710559F08830910540F4F3
:1039F00024912093F1003196615071090196F2CF24
:103A000021E0089709F020E08091E8008E7780930C
:103A1000E800CBCF2111CCCF0AC080914702882388
:103A200061F0853061F08091E80083FD0AC08091EB
:103A3000E80082FFF2CF80E0089582E0089583E0FD
:103A4000089581E00895982F973068F59093E900E4
:103A5000981739F07091EC002091ED005091F00032
:103A600003C0242F762F50E021FD02C09F5FECCFD2
:103A70003091EB003E7F3093EB003091ED003D7FC5
:103A80003093ED003091EB0031603093EB00709398
:103A9000EC002093ED005093F0002091EE0027FD04
:103AA000E5CF80E008958F708093E90081E008956C
:103AB0008091480287FF11C08091E80082FD05C017
:103AC000809147028111F8CF11C08091E8008B7777
:103AD0000BC080914702882349F08091E80080FF65
:103AE000F8CF8091E8008E778093E80008952091C8
:103AF000E4003091E50095E64091EC00842F817060
:103B000040FF23C08091E80080FD1DC080914702E6
:103B1000882399F0853099F08091EB0085FD11C0E4
:103B20004091E4005091E5002417350729F39150A6
:103B300011F09A01E1CF84E0089582E0089583E0D6
:103B4000089581E0089580E008954091E80042FFE3
:103B5000DDCF08950E94181E0E94201EE0EEF0E0C6
:103B6000808181608083E8EDF0E080818F778083C1
:103B700019BCA7EDB0E08C918E7F8C9380818F7EF5
:103B800080831092460208950F931F93CF93DF9383
:103B90000E94181E0E94201EC8EDD0E088818F77F9
:103BA000888388818068888388818F7D888319BC19
:103BB0001092470210924302109245021092440262
:103BC00000EE10E0F80180818B7F80838881816026
:103BD000888342E060E080E00E94231DE1EEF0E097
:103BE00080818E7F8083E2EEF0E08081816080833F
:103BF000808188608083F80180818E7F80838881C6
:103C000080618883DF91CF911F910F910895E8ED36
:103C1000F0E080818F7E8083E7EDF0E0808181603D
:103C2000808384E082BF81E0809346020C94C41DAF
:103C3000E8EDF0E080818E7F80831092E2000895AD
:103C40001092DA001092E10008951F920F920FB6C1
:103C50000F9211242F933F934F935F936F937F9312
:103C60008F939F93AF93BF93EF93FF938091E10066
:103C700082FF0BC08091E20082FF07C08091E100CB
:103C80008B7F8093E1000E949B208091DA0080FF6F
:103C90001FC08091D80080FF1BC08091DA008E7F0A
:103CA0008093DA008091D90080FF0DC080E189BD4A
:103CB00082E189BD09B400FEFDCF81E08093470217
:103CC0000E94781A05C019BC109247020E94861AF9
:103CD0008091E10080FF19C08091E20080FF15C053
:103CE0008091E2008E7F8093E2008091E20080610B
:103CF0008093E2008091D80080628093D80019BC44
:103D000085E0809347020E948A1A8091E10084FF37
:103D100030C08091E20084FF2CC080E189BD82E147
:103D200089BD09B400FEFDCF8091D8008F7D8093BE
:103D3000D8008091E1008F7E8093E1008091E200C5
:103D40008F7E8093E2008091E20081608093E200A8
:103D500080914302882311F084E007C08091E30042
:103D600087FD02C081E001C083E0809347020E948A
:103D70008B1A8091E10083FF29C08091E20083FFCC
:103D800025C08091E100877F8093E10082E08093ED
:103D90004702109243028091E1008E7F8093E10000
:103DA0008091E2008E7F8093E2008091E20080614A
:103DB0008093E20042E060E080E00E94231D809159
:103DC000F00088608093F0000E94891AFF91EF91C3
:103DD000BF91AF919F918F917F916F915F914F9123
:103DE0003F912F910F900FBE0F901F9018951F922B
:103DF0000F920FB60F9211242F933F934F935F931F
:103E00006F937F938F939F93AF93BF93CF93DF93E2
:103E1000EF93FF93C091E900CF708091EC00D82F11
:103E2000D17080FDD0E81092E9008091F000877F8A
:103E30008093F00078940E943B1F1092E9008091DB
:103E4000F00088608093F000CD2BCF70C093E90024
:103E5000FF91EF91DF91CF91BF91AF919F918F91A2
:103E60007F916F915F914F913F912F910F900FBE76
:103E70000F901F9018951F93CF93DF93CDB7DEB7A8
:103E8000AA970FB6F894DEBF0FBECDBFE8E4F2E00C
:103E90008091F100819322E0E035F207C9F70E949A
:103EA000971A8091E80083FF2EC18091480290917B
:103EB0004902492F50E04A30510508F024C1FA0167
:103EC000EC58FF4F0C94CB20803821F0823809F059
:103ED0001AC108C08091440290914502992389F04B
:103EE00082600FC080914C028F70873008F00BC148
:103EF0008093E9008091EB0085FB882780F9109280
:103F0000E9009091E800977F9093E8008093F1009A
:103F10001092F100D1C0282F2D7F09F0F4C0882322
:103F200019F0823061F0EFC080914A02813009F0CF
:103F3000EAC0933009F080E0809345022EC0809162
:103F40004A0281112AC080914C028F702FEF280FF6
:103F5000263008F0D8C08093E9002091EB0020FFC4
:103F60001CC0933021F48091EB00806214C09091CA
:103F7000EB0090619093EB0021E030E0A90102C0DA
:103F8000440F551F8A95E2F74093EA001092EA0029
:103F90008091EB0088608093EB001092E9008091A3
:103FA000E800877F8093E8000E94581DACC0811113
:103FB000AAC010914A021F778091E3008078812B7C
:103FC0008093E3008091E800877F8093E8000E945F
:103FD000581D8091E80080FFFCCF8091E30080684D
:103FE0008093E300111102C082E001C083E080935E
:103FF000470289C08058823008F085C080914A020B
:1040000090914B028C3D53E0950779F583E08A83CC
:104010008AE289834FB7F894DE01139620E03EE0F0
:1040200051E2E32FF0E050935700E49120FF03C0EA
:10403000E295EF703F5FEF708E2F90E0EA3010F066
:10404000C79601C0C0968D939D932F5F243149F789
:104050004FBF8091E800877F8093E8006AE270E0BC
:10406000CE0101960E94641C16C060914C027091B2
:104070004D02AE014F5F5F4F0E94931BBC01892B25
:1040800009F441C09091E800977F9093E8008981FE
:104090009A810E94C21C8091E8008B778093E8008F
:1040A00032C0803881F58091E800877F8093E800F6
:1040B000809143028093F1008091E8008E7772CF67
:1040C000811121C080914A0290914B029927029759
:1040D000D4F48091E800877F8093E80080914A02C1
:1040E000809343020E94581D80914302811106C0B3
:1040F0008091E30087FD02C081E001C084E08093ED
:1041000047020E948D1A8091E80083FF0AC08091C7
:10411000E800877F8093E8008091EB0080628093C5
:10412000EB00AA960FB6F894DEBF0FBECDBFDF91AD
:10413000CF911F9108950895CF93809147028823CE
:10414000A1F0C091E900CF709091EC00892F8170AF
:1041500090FD80E8C82B1092E9008091E80083FD73
:104160000E943B1FCF70C093E900CF91089597FB49
:10417000072E16F4009407D077FD09D00E94D120B5
:1041800007FC05D03EF4909581959F4F089570955A
:1041900061957F4F0895EE0FFF1F0590F491E02D7C
:1041A0000994AA1BBB1B51E107C0AA1FBB1FA6177E
:1041B000B70710F0A61BB70B881F991F5A95A9F7D0
:1041C00080959095BC01CD010895F999FECF92BDDF
:1041D00081BDF89A992780B50895A8E1B0E042E042
:1041E00050E00C941921262FF999FECF92BD81BD84
:1041F000F89A019700B4021639F01FBA20BD0FB625
:10420000F894FA9AF99A0FBE08950396272F0E9400
:10421000F4200E94F320252F0E94F420242F0C94D8
:10422000F4200196272F0E94F4200C94F320DC0147
:10423000CB01FC01F999FECF06C0F2BDE1BDF89AB1
:10424000319600B40D9241505040B8F70895F8945B
:02425000FFCF9E
:10425200DD012808641E140A321EBA19311A061A20
:10426200021AF01901E200E900EA00B500B600B74F
:1042720000CD008301CC008A019201940121022326
:104282000224022502260227022A02B300B4006F8A
:10429200007000818283F73133946697C6E200E9A9
:1042A20000EA00B500B600B700CD008301CC008A59
:1042B20001920194012102230224022502260227EF
:0E42C200022A02B300B4006F007000818283F4
:00000001FF
